:020000040800F2
:100000000080022025270008D5050008D705000834
:10001000D9050008DB050008DD0500080000000028
:10002000000000000000000000000000DF050008E4
:10003000E105000800000000E3050008E5050008F0
:100040007527000875270008752700087527000820
:100050007527000875270008752700087527000810
:10006000E9050008752700087527000875270008AE
:1000700075270008752700087527000875270008F0
:1000800075270008752700087527000875270008E0
:10009000752700087527000875270008090600085D
:1000A00075270008752700087527000875270008C0
:1000B0007527000875270008000000007527000854
:1000C00075270008752700087527000875270008A0
:1000D0007527000875270008752700087527000890
:1000E00075270008752700080000000000000000C8
:1000F0000000000000000000000000000000000000
:1001000000000000752700080000000075270008A7
:100110007527000800000000752700080000000097
:10012000752700087527000875270008752700083F
:1001300075270008752700087527000800000000D3
:10014000752700087527000875270008752700081F
:10015000752700087527000875270008752700080F
:1001600075270008752700087527000800000000A3
:1001700000000000752700080000000000000000DB
:1001800075270008752700087527000875270008DF
:0401900075270008C7
:1001A00010B5054C237833B9044B13B10448AFF3B1
:1001B00000800123237010BD6800002000000000B3
:1001C0009835000808B5034B1BB103490348AFF34A
:1001D000008008BD000000006C0000209835000879
:1001E00001F0FF01102A2BDB10F0070F08D010F8E8
:1001F000013B013A8B422DD010F0070F42B3F6D1EC
:10020000F0B441EA012141EA014122F007047FF004
:1002100000070023F0E80256083C85EA010586EA5B
:10022000010685FA47F5A3FA87F586FA47F6A5FA97
:1002300087F68EB9EED1F0BC01F0FF0102F00702A3
:1002400032B110F8013B013A83EA010313B1F8D14E
:100250000020704701387047002D06BF354603382F
:10026000073815F0010F07D1013015F4807F02BF68
:10027000013015F4C03F0130F0BC0138704700BFB9
:1002800030B5ADF5814D99B0C84B1B780DF5814265
:100290005C32137000240DF5814358331C60012338
:1002A0000DF581425A321370C02221460DF580406F
:1002B000183002F085FA44F20602214604A802F042
:1002C0007FFA01940294009400F05AFE01F088F93C
:1002D00000F08AFE00F09AFF01F000F801F054F8F7
:1002E00001F0A8F80DF581405C3001F0CDFCB04B79
:1002F0001C70B04B1C70B04B1C80B04B1C70AC4BD6
:100300001B78012B48D0AB4B1B78012B53D00DF53C
:10031000814358331B78012B00F0FF800DF581439A
:1003200058331B78012BEAD10DF5814359331B78E3
:10033000012BE4D100240DF5814359331C7004A82E
:1003400001F02EFE9D4B1C709B4B4FF6FF721A80E6
:1003500002F1804202F20142136843F40073136019
:10036000944B1C70964B4FF400529A61ADF80440C8
:10037000FF23ADF80630ADF80840ADF80A40914AC9
:1003800004210DEB010001F06BFB8F4A04210DEB02
:10039000010001F065FBB2E7854B00221A700DF5F4
:1003A000814258320DF5804118310DF581405C30A5
:1003B00001F03CFDA7E70DF5814358331B78012B75
:1003C000A5D10DF5814359331C78002C9FD1794B71
:1003D00000221A70794B1B784B2B02D94EE0013466
:1003E000E4B21F2C93D804EB44030DF58142603234
:1003F00002EB430313F8C83C012BF0D1E30043F0B8
:1004000001038DF80C306C4B1B888DF80D300023E8
:100410008DF80E308DF80F30039904A801F05CFDC3
:10042000DDE7694D2A46012101A801F019FB2A46A2
:100430000421684601F084FB9DF800308DF80C30F3
:100440005D4B1B888DF80D309DF802308DF80E3015
:100450009DF803308DF80F30039904A801F03CFD9E
:10046000012822D0594B00221A7004AA44F2040336
:10047000D35AB3F5006F38D80134E4B21F2C3FF6DD
:1004800046AF04EB44030DF58142603202EB4303B7
:1004900013F8C83C012BE8D1E30043F00103ADF8A9
:1004A00004300F2CBDD8474DBCE70123474A1370D9
:1004B0000DF581425C32127842F020020DF5814147
:1004C0005C310A70002211460DF581405C300088D5
:1004D00001F0A0FB0DF581435C331B786FF34513EE
:1004E0000DF581425C321370BFE701220DF58143A7
:1004F0005B331A700DF581435C331B786FF3041383
:100500000DF581415C310B70002319460DF58140DA
:100510005C30008801F07EFBAEE70DF581435B3374
:100520001B78012B7FF4FAAE294B1B6913F0020FE5
:1005300005D10DF581435A331B78012B17D10023C8
:100540000DF581425A32137004A801F0F5FC0390B6
:10055000C3B2C0F3072040EA032001F037FB9DF847
:100560000E009DF80F3043EA002001F02BFC04AA96
:1005700044F20403D35A002B7FF4D0AE00210DF5D2
:1005800081435B3319700DF581435C331B7843F075
:1005900010030DF581425C3213700B4601220DF5FC
:1005A00081405C30008801F035FBB7E6B0350008CB
:1005B0009000002094000020920000209500002070
:1005C0000008004800380140004800409100002029
:1005D000000400487047FEE7FEE7FEE7FEE77047CD
:1005E0007047704770470000054B5B6913F0040FBC
:1005F00005D0034B04225A61024B01221A70704746
:100600000004014090000020154B5B6913F4007F4B
:1006100024D0134B4FF400725A61124B01221A700E
:10062000114BB3F90030FD2B0EDD0F4B00221A8069
:100630000E4B1B78012B0AD10D4B04229A6100BF8F
:1006400000BF00BF9A6202E00133074A1380094BE2
:100650001B784B2B02D80133064A1370704700BF3A
:10066000000401409400002092000020910000202E
:10067000000C0048950000200023934223DA10B4B8
:100680000CE000BF4FF0604109680029F9D04FF03D
:100690006041087001332146934210DA4C1C0878FF
:1006A0004FF06041D1F8801E11F0010FF2D04FF0F1
:1006B0006041D1F8001E11F0010FEBD0E2E71046C7
:1006C0005DF8044B70471046704700000346064A29
:1006D000126822B1044A1068034413607047024A4A
:1006E00002491160F6E700BF840000209C00002052
:1006F000024B58221A604FF0FF30704798000020DC
:10070000024B58221A604FF0FF30704798000020CB
:10071000024B58221A600020704700BF980000204A
:10072000024B58221A604FF0FF30704798000020AB
:10073000024B58221A604FF0FF307047980000209B
:100740000346027A002A00F0A98010B40268002A49
:1007500051D0417A012919D019B1022921D00020A4
:1007600009E05A49486820EA02024A601A680868A3
:1007700002430A6001209A7A002A3DD0022A25D03D
:10078000032A2ED0012A16D0002035E04F490868F0
:1007900020EA02020A601A68486802434A6001209F
:1007A000E9E74A49086802430A601A684868024350
:1007B0004A600120DFE71C68444AD16821EA04014D
:1007C000D160196894682143916015E01C683F4A24
:1007D000916821EA040191601968D4682143D160CD
:1007E0000AE01968394A9468214391601968D4680D
:1007F0002143D16000E001205A68CAB1597A012929
:1008000019D019B1022920D0002008E02F494C6AE4
:1008100024EA02024A625A680C6A22430A629A7AFD
:1008200032B1022A25D0032A2ED0012A16D0002068
:100830005DF8044B704725490C6A24EA02020A62FB
:100840005A684C6A22434A62E9E720490C6A22430B
:100850000A625A684C6A22434A62E0E75C681B4AB3
:10086000D16A21EA0401D1625B68916A0B43936209
:10087000DEE75C68154A916A21EA040191625B68CF
:10088000D16A0B43D362D3E75968104A946A214373
:1008900091625B68D16A0B43D362C9E700680B4A77
:1008A000116821EA000111601868516821EA00010D
:1008B00051605868116A21EA000111625968536A4F
:1008C00023EA010353620120704700BF0004014086
:1008D000F0B40A6892FAA2F2B2FA82F218E00E6953
:1008E000C46893FAA3F5B5FA85F56D00032707FAF6
:1008F00005F524EA050493FAA3F5B5FA85F56D002C
:1009000006FA05F52C43C4604C68022C36D001323F
:100910000B6833FA02F464D0012494402340F6D0EB
:100920004E68046893FAA3F5B5FA85F56D000327C0
:1009300007FA05F524EA050493FAA3F5B5FA85F557
:100940006D0006FA05F52C4304604C68013C012C4F
:10095000C5D88E68846893FAA3F5B5FA85F56D005D
:1009600007FA05F524EA050493FAA3F5B5FA85F527
:100970006D0006FA05F52C438460B0E793FAA3F402
:10098000B4FA84F4072C15D84D69046A93FAA3F6D7
:10099000B6FA86F6B6000F2707FA06F624EA06042A
:1009A00093FAA3F3B3FA83F39B0005FA03F323430B
:1009B0000362ACE74C69456A1B0A93FAA3F6B6FAE0
:1009C00086F6B6000F2707FA06F625EA060593FA1B
:1009D000A3F3B3FA83F39B0004FA03F32B434362BC
:1009E00095E74A68013A012A02D90120F0BC704714
:1009F000C968426822EA030201FB03F31343436020
:100A0000F3E710B4036823F0010303608A68CC683D
:100A1000036823F4F85342EA0422134303604B684B
:100A20000361036843F001030360836823F4004318
:100A300083600A698C69836823F4FF6323F00703EA
:100A40002243134383600B691BB1836843F4004363
:100A500083600B68026822F44012134303604B6901
:100A6000426822F400421343436001205DF8044BC6
:100A700070470000034B9B68C3F30313024AD35C27
:100A8000D840704700100240D0350008034B9B68E7
:100A9000C3F30223024AD35CD840704700100240DF
:100AA000E0350008034B9B68C3F3C223024AD35CC2
:100AB000D840704700100240E0350008394BDB6831
:100AC00003F00303012B16D0002B3FD0364A354BE1
:100AD000D868C0F302100130B2FBF0F2D868C0F35E
:100AE000062000FB02F0DB68C3F3416301335B00C7
:100AF000B0FBF3F070472B4B1B6813F0080F11D1BC
:100B0000284B1B6813F0080F06D0264B1B680023E8
:100B1000264A52F82320DAE7224BD3F89430C3F365
:100B20000323F5E71F4B1B6813F0080F07D01D4B7D
:100B30001B68C3F303131D4A52F82320C7E7194B60
:100B4000D3F894301B0903F0F003F4E7154B1B684E
:100B500013F0080F11D1134B1B6813F0080F06D0C8
:100B6000104B1B680023114A52F82320AFE70D4BAE
:100B7000D3F89430C3F30323F5E70A4B1B6813F053
:100B8000080F07D0074B1B68C3F30313074A52F83B
:100B900023209CE7034BD3F894301B0903F0F003A8
:100BA000F4E700BF001002400024F400E83500081C
:100BB00008B5354B9B6803F00C030C2B36D8DFE8E7
:100BC00003F007353535603535356035353532005C
:100BD0002D4B1B6813F0080F11D12B4B1B6813F022
:100BE000080F06D0284B1B680023284A52F8230020
:100BF00048E0254BD3F89430C3F30323F5E7224BA9
:100C00001B6813F0080F07D01F4B1B68C3F30313B7
:100C10001E4A52F8230035E01B4BD3F894301B09D1
:100C200003F0F003F4E7FFF749FF2BE0164B1B68D6
:100C300013F0080F11D1144B1B6813F0080F06D0E6
:100C4000114B1B680023114A52F823001AE00E4B87
:100C5000D3F89430C3F30323F5E70B4B1B6813F071
:100C6000080F07D0084B1B68C3F30313074A52F859
:100C7000230007E0044BD3F894301B0903F0F00382
:100C8000F4E7034808BD00BF00100240E835000843
:100C90000024F40008B5032805D00C282BD03028F8
:100CA00051D0002008BD434BD3F88830034043EABD
:100CB0000040414B98420FD0B0F1031F13D0013BCD
:100CC000984206D0FFF774FFFFF7D4FEFFF7EAFE65
:100CD000E8E7FFF76DFFE5E7364B1B6813F4806F1D
:100CE00059D10020DEE7334BD3F8903013F0020FD8
:100CF00053D10020D6E72F4BD3F88830034043EA86
:100D000000402E4B98420FD0B0F10C1F13D0043B83
:100D1000984206D0FFF74CFFFFF7ACFEFFF7B6FE98
:100D2000C0E7FFF745FFBDE7224B1B6813F4806F58
:100D300036D10020B6E71F4BD3F8903013F0020FE6
:100D400030D10020AEE71B4BD3F88830034043EA94
:100D500000401B4B98420FD0B0F1301F13D0103B16
:100D6000984206D0FFF724FFFFF784FEFFF78EFEC0
:100D700098E7FFF71DFF95E70E4B1B6813F4806F94
:100D800013D100208EE70B4BD3F8903013F0020FF5
:100D90000DD1002086E70B4884E74FF4004081E73F
:100DA00008487FE74FF400407CE706487AE74FF4B5
:100DB000004077E7001002400200030008000C002A
:100DC000200030000024F400C02801D0002070472B
:100DD00008B5164BD3F88830034043EA0040144B63
:100DE00098420FD0B0F1C01F13D0403B984206D0BC
:100DF000FFF7DEFEFFF73EFEFFF748FE01E0FFF7DC
:100E0000D7FE08BD094B1B6813F4806F09D1002081
:100E1000F7E7064BD3F8903013F0020F03D1002010
:100E2000EFE70448EDE74FF40040EAE70010024026
:100E30008000C0000024F40038B5036813F0010FEF
:100E400053D10D46044603682B4A1A404B68C968C3
:100E50000B4329690B43A9690B4313430360AB6838
:100E6000426822F44052134343606B69826822F463
:100E7000407213438360214B98420AD0204B984222
:100E800019D0204B98421AD01F4B98421BD00020FB
:100E90002CE00320FFF7FEFE48B32A684AB3AB6993
:100EA000B3F5004F13D000EB5203B3FBF2F39BB248
:100EB000E36001201AE00C20FFF7ECFEECE73020A5
:100EC000FFF7E8FEE8E7C020FFF77EFFE4E75308FE
:100ED00003EB4003B3FBF2F34FF6F0721A40C3F397
:100EE00042031343E360012000E0002038BD0020EE
:100EF000FCE70020FAE700BFF369FFEF003801408C
:100F00000044004000480040004C0040054BA3FB5B
:100F1000003080090138044B586000229A60052295
:100F20001A607047D34D621010E000E0014B18606A
:100F3000704700BF000000200F49D1F8883043F40B
:100F40007003C1F888300D4B1A6842F001021A6034
:100F5000002098601A6822F0A85222F410221A6029
:100F60004FF48052DA601A6822F480221A60986185
:100F70004FF000638B60704700ED00E0001002400E
:100F800082B0164B1A6E42F001021A661A6E02F017
:100F900001020192019A9A6D42F080529A659B6D0E
:100FA00003F080530093009B0D4BD96821F4E0615E
:100FB0000904090C0B4A0A43DA60DA6800221A763F
:100FC000D9685A76D9689A76D968DA77D96883F871
:100FD0002020D96883F8222002B070470010024018
:100FE00000ED00E00003FA052DE9F0438DB0694BF8
:100FF000DA6C42F00102DA64DA6C02F00102059266
:10100000059ADA6C42F00402DA64DA6C02F0040247
:101010000492049ADA6C42F00202DA64DA6C02F0AA
:1010200002020392039ADA6C42F00802DA64DA6C84
:1010300002F008020292029ADA6C42F08002DA644C
:10104000DB6C03F080030193019B4FF40058CDF853
:1010500018800127079702250895002409940A950E
:101060004D4E06A93046FFF733FCC6F828804FF0F6
:10107000FF08CDF818800797089509940A9406A9E7
:101080004FF09040FFF724FCCDF8188007970895A3
:1010900009940A9406A93046FFF71AFC4FF48078A9
:1010A000CDF818800797089509940A9406A9304648
:1010B000FFF70EFCC6F828804FF48069CDF8189031
:1010C0000797089509940A9406A93046FFF700FC93
:1010D000C6F828904FF40069CDF818900797089546
:1010E00009940A9406A93046FFF7F2FBC6F8289047
:1010F0004FF48059CDF818900797089509940A94F1
:1011000006A93046FFF7E4FBC6F828904FF40079B3
:10111000CDF818900797089509940A9406A93046C7
:10112000FFF7D6FBC6F82890CDF8188007970895EA
:1011300009940A9406A94FF09040FFF7C9FB4FF0BD
:101140009043C3F8188006950797089509940A9468
:1011500006F5A05606A93046FFF7BAFBB5614FF079
:101160000408CDF818800797089509940A94A6F505
:10117000805606A93046FFF7ABFBC6F828800695D7
:1011800007940A9406A90548FFF7A2FB0DB0BDE835
:10119000F08300BF0010024000080048000400482F
:1011A00030B587B0FF25009500240194049469466A
:1011B0004FF09040FFF78CFB009501940494694632
:1011C0000248FFF785FB07B030BD00BF00080048AC
:1011D000F0B587B0FF2700970126019602250295FA
:1011E00000240394049469464FF09040FFF770FB8D
:1011F0000097019602950394049469460248FFF70C
:1012000067FB07B0F0BD00BF0008004870B590B0A4
:101210002F4B1A6E42F480421A661A6E02F4804214
:101220000292029ADA6C42F00102DA64DB6C03F09B
:1012300001030193019B4FF4C063039302230493C2
:10124000032305930025069507950723089303A913
:101250004FF09040FFF73CFB1E4B09934FF4805634
:101260000A960B950C950C230D930E954FF40043A5
:101270000F93194C09A92046FFF7DEFD636843F47C
:1012800080336360636843F400336360636823F40E
:1012900090436360A36823F02A03A360236843F0AC
:1012A000010323604FF4C053039301230493059576
:1012B0000695079303A94FF09040FFF709FB4FF005
:1012C00090434FF400629A619E6210B070BD00BFFF
:1012D00000100240809698000038014010B590B090
:1012E000254B9A6D42F480229A659A6D02F4802211
:1012F0000292029ADA6C42F00202DA64DB6C03F0CA
:1013000002030193019B4FF4406303930223049370
:10131000032305930024069407940723089303A945
:101320001648FFF7D5FA164B09934FF480530A93EA
:101330000B940C940C230D930E944FF400430F93D5
:10134000104C09A92046FFF777FD636843F480330A
:101350006360636843F400336360636823F490431D
:101360006360A36823F02A03A360236843F00103AA
:10137000236010B010BD00BF001002400004004800
:10138000809698000048004010B590B0254B9A6DAB
:1013900042F400129A659A6D02F400120292029AC7
:1013A000DA6C42F00202DA64DB6C03F002030193B0
:1013B000019BC0230393022304930323059301237A
:1013C000069307930423089303A91748FFF780FAAD
:1013D000164C636843F000736360E36823F40043D2
:1013E000E360236823F400232360236823F400339D
:1013F0002360002309930E4A0A920B930C930D93DA
:101400000E930F9309A92046FFF7FBFAE36823F434
:10141000FF6323F00603E360236843F001032360C6
:1014200010B010BD001002400004004800540040FD
:101430009129700010B584B06048826822F470620F
:101440004FF4706393FAA3F3B3FA83F3012101FA23
:1014500003F31343836004240194002302938DF863
:101460000C108DF80D308DF80E100DEB0400FFF709
:1014700067F9534AD06894FAA4F3B3FA83F35B0094
:10148000032101FA03F320EA030394FAA4F0D360E2
:10149000106894FAA4F3B3FA83F35B0001FA03F340
:1014A00020EA030394FAA4F41360464BDA68C2F30B
:1014B0000222C2F10703042B28BF04231946131D7F
:1014C000062B77D9033A4FF0FF338B40DB4303F011
:1014D000020393401B01DBB23B4A82F808334FF40E
:1014E0008073136002F1C04202F50C52136843F09E
:1014F000040313603148026922F0F002F02393FAEA
:10150000A3F3B3FA83F3012101FA03F31343036155
:101510004FF400740194002302938DF80C108DF8A1
:101520000D3002238DF80E3001A8FFF709F9244A87
:10153000D06894FAA4F3B3FA83F35B00032101FAB1
:1015400003F320EA030394FAA4F0D360106894FA3A
:10155000A4F3B3FA83F35B0001FA03F320EA030375
:1015600094FAA4F41360174BDA68C2F30222C2F1B2
:101570000703042B28BF04231946131D062B1BD970
:10158000033A4FF0FF338B40DB4303F001039340FA
:101590001B01DBB20C4A82F817334FF400031360CF
:1015A00002F1C04202F50C52136823F40073136079
:1015B00004B010BD002286E70022E2E700000140EF
:1015C0000004004800ED00E000E100E008B50A4634
:1015D0000146024801F0FCF808BD00BF2C360008A7
:1015E00038B54D4A136823F0070343F00403136032
:1015F000136803F00703042B40F08680474A136802
:1016000023F4C06343F400731360454B1A6842F43B
:1016100080221A601A6842F480321A60404B1B68BC
:1016200013F4003FFAD03E4AD2F8943043F001035D
:10163000C2F894303A4BD3F8943013F0020FF9D03B
:10164000374AD168374B0B4043F4206343F0030320
:10165000D360136843F080731360D36843F08073E2
:10166000D3602F4B1B6813F0007FFAD02C4A93688D
:1016700043F0030393602A4B9B6803F00C030C2B8D
:10168000F9D1274CA36823F0F003A360A36823F4E7
:10169000E063A360A36823F46053A360224D28464F
:1016A000FFF734FC214A136843F004031360284613
:1016B000FFF73CFCD4F8883023F0030343F0010328
:1016C000C4F888301A4A136823F4405343F4805313
:1016D0001360184BDA68C2F30222C2F10703042B2D
:1016E00028BF04231946131D062B12D9033A4FF0C5
:1016F000FF338B40DB4303F00F0393401B01DBB24E
:101700000C4A82F8233038BD46210B48FFF75EFFB4
:1017100074E70022EBE700BF0020024000700040A9
:10172000001002408C80FFF900B4C40410E000E017
:101730008810024000ED00E01836000838B5490076
:10174000C9B20024856915F4004F09D001341E4D3B
:10175000AC42F7D123211D48FFF738FF002032E0CB
:10176000446824F07F7424F45F3424F47F7424F0FC
:10177000030441F0024141F4083121434160816991
:1017800011F0010FFBD082620022816911F0010F7C
:101790000BD101320C498A42F7D1012383613221F6
:1017A0000A48FFF713FF00200DE08362836913F0FE
:1017B000010FFBD0836913F0200FFBD0C36943F006
:1017C0002003C361012038BDA08601005C360008FB
:1017D00038B54900C9B20024856915F4004F09D015
:1017E00001341E4DAC42F7D14C211D48FFF7EEFEEF
:1017F000002032E0446824F07F7424F45F3424F441
:101800007F7424F0030441F0024141F40831214384
:101810004160816911F0010FFBD082620022816971
:1018200011F0010F0BD101320C498A42F7D101238B
:1018300083615B210A48FFF7C9FE00200DE0836247
:10184000836913F0010FFBD0836913F0200FFBD0E5
:10185000C36943F02003C361012038BDA0860100A5
:101860005C36000838B54900C9B20024856915F412
:10187000004F09D00134224DAC42F7D175212148E7
:10188000FFF7A4FE002039E0446824F07F7424F4BC
:101890005F3424F47F7424F0030441F0024141F4E6
:1018A000483121434160816911F0010FFBD0826210
:1018B0000022816911F0010F0BD1013210498A42D7
:1018C000F7D10123836184210E48FFF77FFE0020BA
:1018D00014E01A0A8262826912F0010FFBD0DBB2B7
:1018E0008362836913F0010FFBD0836913F0200F2B
:1018F000FBD0C36943F02003C361012038BD00BFA2
:10190000A08601005C36000838B54900C9B2002441
:10191000856915F4004F0AD001341F4DAC42F7D150
:101920004FF480711D48FFF751FE002033E04468FA
:1019300024F07F7424F45F3424F47F7424F00304CF
:1019400041F0024141F4083121434160816911F0C5
:10195000010FFBD082620022816911F0010F0CD1CE
:1019600001320D498A42F7D10123836140F20F1100
:101970000A48FFF72BFE00200DE08362836913F015
:10198000010FFBD0836913F0200FFBD0C36943F034
:101990002003C361012038BDA08601005C36000829
:1019A00010B503464900C9B200209C6914F4004FE9
:1019B0000AD00130284CA042F7D140F22B11274821
:1019C000FFF704FEFF2046E0586820F07F7020F407
:1019D0005F3020F47F7020F0030041F0004444F4B5
:1019E000903420435860986910F0010FFBD09A6240
:1019F0000022986910F0010F0CD101321648824282
:101A0000F7D101229A614FF49D711448FFF7DEFD72
:101A1000FF2020E09A6912F0400FFBD05A6822F0B4
:101A20007F7222F45F3222F47F7222F0030241F0CF
:101A3000024141F49231114359609A6912F0040F46
:101A4000FBD0586AC0B29A6912F0200FFBD0DA6955
:101A500042F02002DA6110BDA08601005C36000869
:101A600038B50023D46914F0800F09D10133174C25
:101A7000A342F7D119211648FFF7A8FD002022E064
:101A8000002509E030F81530C3F3080343F48073F0
:101A900013850AE00135EDB28D4215D2002DF1D04B
:101AA00030F81530C3F3080313850023D46914F00C
:101AB000400FEFD10133054CA342F7D12C2104484C
:101AC000FFF784FD002038BD0120FCE780969800D8
:101AD0006C36000810B582B00024019406E08A8CB0
:101AE00002AB234403F8042C0134E4B2844213D241
:101AF0000023CA6912F0200FF1D101330E4A93423C
:101B0000F7D10C4646210D48FFF760FD08232362FC
:101B10004FF0FF3002B010BD9DF804309DF8050075
:101B2000000440EA03609DF8063040EA03209DF877
:101B300007301843EEE700BF40420F006C36000844
:101B400030B4002513E0C25C02F0FE02C25401333F
:101B5000DBB28B4204D2002BF5D0FF22C254F6E751
:101B6000002030BC7047938C43550135EDB28D4257
:101B70000CD20023D46914F0200FF4D10133044CAB
:101B8000A342F7D1082313620023E2E70120E8E72C
:101B90008096980008B5FFF703FB00BF4FF0904315
:101BA0004FF480729A621B69DBB2064A1069000228
:101BB00080B21843044B02229A6200BF00BF00BFEC
:101BC0009A6108BD00080048001C004838B504466A
:101BD0004FF090454FF48073AB61FFF7F9FA00BF07
:101BE000E2B2D3431B0403F47F031343AB61240A23
:101BF000E3431B0403F47F031C43054B9C614FF438
:101C000000729A6100BF00BF00BF9A6238BD00BF7A
:101C1000000800482DE9F04180460F4616461D4653
:101C20004FF090444FF48073A361FFF7D1FA00BFE7
:101C30005FFA88F3D843000400F47F001843A061E2
:101C4000012F0CD0012E13D03DB10E4B4FF480521A
:101C50009A6100BF00BF00BF9A62BDE8F081094BE6
:101C60004FF480629A6100BF00BF00BF9A62E9E74B
:101C7000044B4FF400629A6100BF00BF00BF9A623C
:101C8000E2E700BF0008004870B582B00646444C49
:101C90004FF40053A362FFF79BFA4FF48073A362E3
:101CA0004FF48062A2624FF40062A2624FF480524D
:101CB000A2624FF40072A2624FF090429361394BDE
:101CC00002229A61A3F5805304229A620024364BC3
:101CD0001C70364B1C70364B4FF6FF721A80354B1A
:101CE0001C70354B1C70354D23460322202128469D
:101CF000FFF724FDFF23012220212846FFF71EFDC8
:101D00002346032226212846FFF718FDFF23012240
:101D100026212846FFF712FD482416E0274D002310
:101D2000012221462846FFF753FD4FF4A05302221B
:101D300021462846FFF796FD4FF4C853032221465B
:101D40002846FFF78FFD0134E4B24D2CE6D9062377
:101D5000ADF800300023ADF80230ADF80430ADF836
:101D60000630174C224604216846FFF779FE2146CB
:101D70000420FFF7AFFEB0F1FF3F0BD0337843F004
:101D8000080333700023012211463088FFF742FF19
:101D900002B070BD33786FF3C3033370F2E700BF56
:101DA00000080048001C004890000020940000201B
:101DB0009200002095000020910000200054004077
:101DC0000048004070B504464FF090464FF48075CF
:101DD000B561FFF7FDF900BFE2B2D3431B0403F482
:101DE0007F031343B361240AE3431B0403F47F031B
:101DF0001C43044B9C619D6100BF00BF00BF9D62FE
:101E000070BD00BF000800480023064A12782AB9B6
:101E10000133054A9342F8D1012070470020014B5D
:101E2000187070479000002040420F0070B50446C3
:101E30000E461546FFF7AEFE80B2030A2A78012A45
:101E40000BD07AB9013B0A2B42D8DFE803F0161B0E
:101E50004120252A2F33363A3E00092BF1D129465D
:101E600000F0E2FB237843F00103237000231A46BD
:101E700001212088FFF7CEFE70BD3146204600F0DC
:101E80009BF8EFE73146204600F03CF9EAE732469E
:101E9000214600F07BF9E5E73246214600F0D2F911
:101EA000E0E73246214600F093FADBE7214600F0F6
:101EB00005FBD7E700F0A4FBD4E7294600F0B4FB0C
:101EC000D0E7214600F0EEFBCCE700F01DFCC9E7AF
:101ED0000220FFF77BFEC5E782B000F58042138841
:101EE00040F8231001339BB21380B3F5805F17D005
:101EF00044F20402835A01339BB28352B3F5805FEC
:101F000017D913464FF48052C25244F20202835A48
:101F100001339BB28352B3F5805F05D0012009E005
:101F2000134600221A80E3E713460022C252012022
:101F300000E0002002B0704710B483B0174A126866
:101F4000009244F20402815A81B1034644F2020431
:101F5000025B50F822000090013292B21A53B2F59F
:101F6000805F17D0013944F204029952009B00208F
:101F7000DAB262F30700C3F3072262F30F20C3F360
:101F8000074262F317401B0E63F31F6003B05DF856
:101F9000044B704700201853E4E700BFB435000835
:101FA00000F580420023138044F20402835244F27D
:101FB00002028352704700002DE9F04383B00746C8
:101FC0000D460120FFF702FE3B7843F001033B7012
:101FD00000231A4601213888FFF71CFEFFF714FF83
:101FE000F8B90446FFF7D6FD86B2C0B2C343DFF8A6
:101FF0001081DBB2012220214046FFF79FFB814682
:102000006FEA1623DBB2012226214046FFF796FB3A
:10201000B9F1000F00D060B90220FFF7D7FD00260C
:1020200015E01E213448FFF7D1FA002003B0BDE8C7
:10203000F0830120FFF7CAFD09E046FA04F304EB40
:1020400044014A0003F00103AB540134E4B20F2C05
:10205000F3D93B7843F001033B7000231A4601217A
:102060003888FFF7D7FDFFF7CFFE48BBFFF792FD9B
:1020700084B20623ADF800300023ADF80230230A05
:10208000ADF80430E3B2ADF806301C4E3246042100
:102090006846FFF7E5FC31460420FFF71BFDB0F171
:1020A000FF3F03D0C0F3074001280FD03B786FF308
:1020B000C3033B700220FFF789FD0024102317E0C3
:1020C00036210D48FFF782FA0020AFE73B7843F056
:1020D00008033B700120FFF779FDEFE744FA03F2B4
:1020E00003EB4300410002F001026A540133DBB20A
:1020F0001F2BF3D9012099E77C36000800480040E7
:102100000054004070B582B006460C461E4DFF23B9
:10211000012220212846FFF711FBFF23012226215F
:102120002846FFF70BFB0623ADF800300023ADF87F
:102130000230ADF80430ADF80630A5F540652A460A
:1021400004216846FFF78CFC29460420FFF7C2FCF7
:10215000B0F1FF3F03D0C0F30740012803D033782C
:102160006FF3C3033370002306E003EB43014A001F
:102170000021A1540133DBB21F2BF6D90120FFF758
:1021800025FD012002B070BD005400402DE9F04152
:1021900082B088461746C6B2F4080F2C2FD8274DB8
:1021A00000F0F80343F00203ADF8003000F0030044
:1021B000ADF802000023ADF80430ADF806302A4631
:1021C00004216846FFF74CFC29460420FFF782FCF7
:1021D000B0F1FF3F03D0C0F30740012818D0184BDF
:1021E0009D420ED004EB440463001F440023BB70E7
:1021F0000220FFF7EBFC012002B0BDE8F081104D9A
:10220000CEE798F800306FF3C30388F80030E9E7B1
:102210000B4B9D420AD004EB440463001F4406F0BC
:102220000306BE700120FFF7D1FCE4E798F8003008
:1022300043F0080388F80030EDE700BF00380140A4
:10224000004800402DE9F04182B005460C4690461A
:102250000120FFF7BBFC237843F001032370002328
:102260001A4601212088FFF7D5FCFFF7CDFD18BBEA
:10227000FFF790FCC5F3C4060F2E25D8514F05F08B
:10228000F80545F00305ADF80050C0F30B00202819
:102290006ED01BDDB0F5807F62D02ADDB0F5806F97
:1022A00056D040F6FF7398422BD0B0F5007F53D044
:1022B0000023ADF8023027E0AE214348FFF786F94E
:1022C000002002B0BDE8F081404FD8E7042857D085
:1022D00007DC012858D00228EAD10A23ADF80230E1
:1022E00012E0082848D01028E2D10723ADF80230C8
:1022F0000AE0402838D08028DAD10423ADF8023033
:1023000002E00023ADF802300023ADF80430ADF850
:1023100006303A4604216846FFF7A2FB39460420FE
:10232000FFF7D8FBB0F1FF3F03D0C0F3074001280F
:1023300033D0264B9F422BD006EB460673009844C1
:10234000002388F803300220FFF740FC0120B8E7A3
:102350000123ADF80230D7E70223ADF80230D3E70E
:102360000323ADF80230CFE70523ADF80230CBE709
:102370000623ADF80230C7E70823ADF80230C3E703
:102380000923ADF80230BFE70B23ADF80230BBE7FD
:1023900023786FF3C3032370CEE70C4B9F420CD01E
:1023A00006EB4606730098449DF8023088F8033027
:1023B0000120FFF70BFC012083E7237843F008039B
:1023C0002370EDE7003801407C36000800480040EB
:1023D0002DE9F04383B005460C4617460120FFF770
:1023E000F5FB237843F00103237000231A460121F3
:1023F0002088FFF70FFCFFF707FDA8BBFFF7CAFB1C
:10240000804683B2C5F3C4060F2E36D8DFF8A890F5
:1024100005F0F80545F00405ADF80050DBB2ADF865
:1024200002300023ADF80430ADF806304A460421EE
:102430006846FFF715FB49460420FFF74BFBB0F158
:10244000FF3F03D0C0F3074001281ED0184B994529
:1024500016D006EB460673001F4401243C7102208F
:10246000FFF7B4FB204605E04FF48E711148FFF7EB
:10247000ADF8002003B0BDE8F083DFF83490C7E783
:1024800023786FF3C3032370E3E7094B99450AD020
:1024900006EB460673001F4487F804800120FFF70F
:1024A00095FB0120E6E7237843F008032370EFE76C
:1024B000004800407C36000800380140F0B589B083
:1024C00006460F466C464A4D0FCD0FC495E80300F3
:1024D00084E80300F3B203F007047F2B08D8454DCE
:1024E000631E042B40D8DFE803F0052A313F380093
:1024F000414DF5E706F0F80646F00206ADF8186023
:102500008023ADF81A300023ADF81C30ADF81E3032
:102510002A46042106A8FFF7A3FA29460420FFF75C
:10252000D9FAB0F1FF3F26D0334B9D422FD0013C6A
:10253000042C51D8DFE804F0303744504D0006F049
:10254000F80646F00306ADF81860D9E706F0F8067D
:1025500046F00406ADF81860D2E706F0F80646F03B
:102560000506ADF81860CBE706F0F80646F005065C
:10257000ADF81860C4E7204B9D4203D00220FFF75E
:1025800025FB31E03B786FF3C3033B70F6E73B7804
:1025900043F008033B70CAE740F30F2000F440709B
:1025A00040F0010419E0C0F3074008AB03EB400022
:1025B00030F8200C000140F0010000B284B20CE0C1
:1025C00040F30F2020F0FF0000B240F0010084B281
:1025D00003E0C0F3074400E001242146074800F06F
:1025E000F7F82046FFF7F2FA012009B0F0BD00BF6E
:1025F000B835000800380140004800409036000817
:1026000008B5084CFF23012220212046FFF796F849
:10261000FF23012226212046FFF790F80120FFF733
:10262000D5FAFEE70054004000B583B0C0B20023E5
:10263000ADF80030ADF80430ADF8063001281FD0F9
:102640000023ADF802300B7011490A6822F40072C1
:102650000A60104A1370104B4FF400529A620F4AEE
:1026600004216846FFF7FCF90D4A04216846FFF78C
:10267000F7F90120FFF7AAFA012003B05DF804FB87
:10268000FF23ADF8023001230B704B70E7E700BF6A
:102690000004014094000020000800480038014078
:1026A0000048004038B50C46C5B20120FFF78EFA4D
:1026B000237843F00103237000231A460121208868
:1026C000FFF7A8FAFFF7A0FB68B9FFF763FAC3B2F8
:1026D0002A4668210A48FFF717F958B10120FFF789
:1026E00075FA012005E040F2F1110648FEF76EFF91
:1026F000002038BD0220FFF769FA0120F9E700BF8A
:10270000005400407C36000808B5C2B26821044875
:10271000FFF746F980B2FFF759FA012008BD00BF64
:1027200000540040DFF834D0002103E00C4B5B582C
:10273000435004310B480C4B42189A42F6D30B4AD3
:1027400002E0002342F8043B094B9A42F9D3FEF71A
:10275000F3FB00F011F8FDF793FDFEE70080022087
:102760004C370008000000206800002068000020AE
:102770009C000020FEE7000070B50D4E0D4CA41B20
:10278000A4100025A54209D10B4E0C4C00F004FF0B
:10279000A41BA4100025A54205D170BD56F8253014
:1027A00098470135EEE756F8253098470135F2E7AE
:1027B0004437000844370008443700084837000809
:1027C00002440346934200D1704703F8011BF9E726
:1027D0000FB40A4B13B51C6824B1A36913B9204682
:1027E00000F04EF805AB049AA1680193204600F072
:1027F000A3F902B0BDE8104004B070470400002007
:10280000002310B50446C0E900338360818143662C
:10281000C281C0E904338361194608225C30FFF7A6
:10282000CFFF054B6362054BA362054BE362054B8B
:102830002462236310BD00BF95300008B730000844
:10284000EF30000813310008014900F085B800BFDF
:10285000ED33000870B54A1E682555430E4605F154
:10286000740100F0E5F8044640B10021C0E900160B
:102870000C30A06005F16802FFF7A2FF204670BD92
:10288000836910B5044633BBC0E912330365124BAC
:10289000124A1B688262984204BF0123836100F0E0
:1028A0001FF86060204600F01BF8A060204600F092
:1028B00017F80022E06004216068FFF7A1FF012201
:1028C0000921A068FFF79CFF02221221E068FFF7B0
:1028D00097FF0123A36110BDAC360008492800080A
:1028E000F8B51B4B1E68B369074613B93046FFF7AE
:1028F000C7FF4836D6E90134013B03D5336833B10D
:102900003668F7E7B4F90C506DB16834F4E7042188
:102910003846FFF79FFF30600028F1D10C233B6061
:1029200004462046F8BD0B4B6566C4E90055A5601A
:10293000C4E90335C4E905550822294604F15C00C1
:10294000FFF73EFFC4E90D55C4E91255E9E700BFA2
:10295000AC3600080100FFFF2DE9F84380468946A8
:1029600000F14804002614B93046BDE8F883D4E9E4
:102970000175013F01D52468F5E7AB89012B07D923
:10298000B5F90E30013303D029464046C847064307
:102990006835EEE738B50546002945D051F8043CC6
:1029A0000C1F002BB8BFE41800F0C0FD1F4A1368CD
:1029B000104633B9636014602846BDE8384000F023
:1029C000B6BDA3420CD921686218934204BF1A68AD
:1029D0005B68636004BF521822600460ECE7134632
:1029E0005A680AB1A242FAD919685818A0420BD104
:1029F00020680144581882421960DDD1106852687D
:102A00005A6001441960D7E702D90C232B60D3E741
:102A1000206821188A4204BF11685268626004BFAE
:102A2000091821605C60C7E738BD00BF880000203E
:102A300070B5CD1C25F0030508350C2D38BF0C25CD
:102A4000002D064601DBA94203D90C233360002088
:102A500070BD00F06BFD214A1468214691B9204CED
:102A600023681BB9304600F005FB2060294630463C
:102A700000F000FB431C24D10C233360304600F0EF
:102A800056FDE4E70B685B1B18D40B2B0FD90B60CA
:102A9000CD50CC18304600F04AFD04F10B00231D48
:102AA00020F00700C31AD3D05A42E250D0E78C423C
:102AB0004B6816BF636013600C46EBE70C46496831
:102AC000CCE7C41C24F00304A04205D0211A3046F0
:102AD00000F0D0FA0130CFD02560DBE7880000207D
:102AE0008C0000209368013B002B10B4936008DA3F
:102AF0009469A34201DB0A2903D15DF8044B00F07D
:102B00000DBB1368581C1060197008465DF8044B23
:102B10007047F8B506460F461446D518AC4201D1A9
:102B2000002007E03A4614F8011B3046FFF7DAFFB1
:102B3000431CF3D1F8BD00002DE9F04F0C469DB0C9
:102B400017461D46064618B183690BB9FFF798FE74
:102B50007C4B9C4258D17468A38918075ED52369C1
:102B6000002B5BD00023099320238DF829303023DC
:102B70008DF82A3003954FF0010BB846454615F8FD
:102B8000013B0BB1252B54D1B8EB070A0BD05346B0
:102B90003A4621463046FFF7BCFF013000F0C280C4
:102BA000099B5344099398F80030002B00F0BA8039
:102BB00000234FF0FF32CDE90523049307938DF8EE
:102BC00053301A93A846052218F8011B5E48FDF7FA
:102BD00007FB049B78BBD90644BF20228DF8532005
:102BE0001A0744BF2B228DF853202A782A2A2AD08C
:102BF000079AA84600200A25414611F8013B303BC0
:102C0000092B69D960B324E0504B9C4201D1B468D0
:102C1000A2E74F4B9C4208BFF4689DE7214630462F
:102C200000F0E0FA00289DD04FF0FF301DB0BDE865
:102C3000F08FA846A2E7444A801A0BFA00F0184326
:102C400004904546BEE7039A111D12680391002ABD
:102C500001DB079204E0524243F00203079204931F
:102C600098F800302E2B0ED198F801302A2B38D14D
:102C7000039B1A1D1B680392002BB8BF4FF0FF3354
:102C800008F102080593334D98F8001003222846F6
:102C9000FDF7A6FA40B14023401B03FA00F0049B65
:102CA000034308F10108049398F800102A488DF8AE
:102CB0002810062208F10107FDF792FA002837D004
:102CC000264B1BBB039B073323F0070308330393F7
:102CD000099B4B44099350E705FB023201208846CB
:102CE0008AE7002308F10108059319460A254046A2
:102CF00010F8012B303A092A03D9002BC3D00591D3
:102D0000C1E705FB012101238046F0E703AB0093F7
:102D10002246134B04A93046AFF30080B0F1FF3FC9
:102D20008146D5D1A3895B063FF57EAF09987DE743
:102D300003AB009322460A4B04A9304600F088F802
:102D4000ECE700BFD036000810370008F036000866
:102D5000B0360008163700081A37000800000000D7
:102D6000132B00082DE9F04791461F468A680B692E
:102D7000DDF820809342B8BF1346C9F8003091F8BF
:102D8000432006460C4612B10133C9F800302368CF
:102D9000990642BFD9F800300233C9F800302568DF
:102DA00015F0060507D104F1190AE368D9F80020E7
:102DB0009B1AAB4228DC94F843302268003318BFDA
:102DC000012392062DD404F1430239463046C04710
:102DD000013020D02368E568D9F8002003F006030D
:102DE000042B08BFAD1AA36822690CBF25EAE5755C
:102DF00000259342C4BF9B1AED184FF000091A3406
:102E00004D451AD1002008E001235246394630468C
:102E1000C047013003D14FF0FF30BDE8F0870135E6
:102E2000C3E7E1185A1C302081F84300224494F88B
:102E3000451082F843100233C5E701232246394684
:102E40003046C0470130E6D009F10109D8E700005B
:102E50002DE9F04301F1430C0C46097E85B06E2943
:102E60001746064698460C9A00F0B38022D863298C
:102E700036D00AD8002900F0B980582900F08380A4
:102E800004F1420584F8421032E0642901D0692936
:102E9000F6D120681368050603F104012AD51B68E2
:102EA0001160002B03DA2D225B4284F843206F4827
:102EB0000A2239E0732900F09D8008D86F2920D0BC
:102EC0007029DDD1236843F02003236003E07529D6
:102ED00017D07829D4D1782384F84530644855E058
:102EE0001368191D1B68116004F1420584F8423013
:102EF00001238CE01B68116010F0400F18BF1BB25B
:102F0000CFE713682568181D1060280601D51B68D7
:102F100002E06806FBD51B8854486F2914BF0A22BB
:102F20000822002184F843106568A560002DC0F2D6
:102F30009580216821F004012160002B3DD1002DF6
:102F400040F08E806546082A0BD12368DB0708D540
:102F5000236962689A42DEBF302305F8013C05F11F
:102F6000FF35ACEB05032361CDF800803B4603AA97
:102F700021463046FFF7F6FE01304DD14FF0FF30CD
:102F800005B0BDE8F083394884F84510136821681E
:102F90001D1D1B6815600A060BD5CA0744BF41F00A
:102FA000200121601BB9226822F020022260102239
:102FB000B7E74D0648BF9BB2EFE76546B3FBF2F1BA
:102FC00002FB1133C35C05F8013D0B460029F5D126
:102FD000B9E7136825686169181D106028061B6829
:102FE00001D5196002E06A06FBD519800023236130
:102FF0006546B9E71368191D11601D6862680021F4
:103000002846FDF7EDF808B1401B60606368236156
:10301000002384F84330A7E723692A46394630461F
:10302000C0470130AAD023689B0713D4E068039BF4
:103030009842B8BF1846A3E701234A4639463046AE
:10304000C04701309AD00135E368039A9B1AAB421E
:10305000F2DCEBE7002504F11909F5E7002BACD110
:10306000037884F8423004F142056CE72137000808
:103070003237000838B5064C002305460846236061
:10308000FDF724FB431C02D1236803B12B6038BD3C
:103090009800002010B50C46B1F90E1000F048FA67
:1030A0000028ABBF636DA3891B1823F48053ACBF0A
:1030B0006365A38110BD2DE9F0411F468B89DB05B7
:1030C00005460C46164605D502230022B1F90E101E
:1030D00000F0B6F9A389B4F90E1023F48053A3814C
:1030E00032463B462846BDE8F04100F069B810B5CD
:1030F0000C46B1F90E1000F0A3F9431CA38915BFCB
:10310000606523F4805343F48053A38118BFA381E7
:1031100010BDB1F90E1000F0D3B80000F8B50E469E
:103120001446054618B183690BB9FFF7A9FB214B7B
:103130009C422AD16C68A369A360A3891A072ED583
:10314000236963B323692068C01A6369F6B28342B6
:10315000374604DC2146284600F048F928BBA3681E
:10316000013BA36023685A1C22601E706369013012
:10317000834204D0A389DB0719D50A2E17D1214633
:10318000284600F033F990B10FE00B4B9C4201D17F
:10319000AC68D0E7094B9C4208BFEC68CBE72146FE
:1031A000284600F01FF80028CCD04FF0FF373846F3
:1031B000F8BD00BFD0360008F0360008B036000871
:1031C00038B5074C054608461146002222601A46CB
:1031D000FDF752FA431C02D1236803B12B6038BDBE
:1031E00098000020324B70B51D6806460C4625B18C
:1031F000AB6913B92846FFF743FB2E4B9C420FD116
:103200006C68B4F90C309AB215072CD4D00611D4DE
:103210000922326043F04003A3814FF0FF303EE0CB
:10322000254B9C4201D1AC68EBE7244B9C4208BF84
:10323000EC68E6E7510712D5616B41B104F1440334
:10324000994202D03046FFF7A5FB00236363A389B0
:1032500023F02403A3810023636023692360A389EF
:1032600043F00803A38123694BB9A38903F42073B6
:10327000B3F5007F03D02146304600F017F9A2894C
:1032800012F001030CD00023A36063695B42A361C9
:10329000236953B9B4F90C3013F08000BAD170BD72
:1032A000920758BF6369A360F2E70020F7E700BF09
:1032B00004000020D0360008F0360008B0360008C0
:1032C00038B5064C0023054608462360FDF710FA82
:1032D000431C02D1236803B12B6038BD9800002045
:1032E0008A892DE9F041054610070C4658D44B68F1
:1032F000002B05DC0B6C002B02DC0020BDE8F0810C
:10330000E66A002EF9D0002312F480522F68216A59
:103310002B6032D0606DA3895A0705D56368C01A47
:10332000636B0BB1236CC01A00230246E66A216A64
:103330002846B047431CA38906D129681D2948D8CF
:10334000294ACA40D60744D500226260D9042269BE
:10335000226004D5421C01D12B6803B96065616B02
:103360002F600029C9D004F14403994202D02846B5
:10337000FFF710FB00206063C0E701232846B04739
:10338000411CC8D12B68002BC5D01D2B01D0162B9A
:1033900001D12F60B1E7A38943F04003A381ADE7DA
:1033A0000F69002FA9D093070E6808BF4B690F6003
:1033B00018BF0023A6EB07088B60B8F1000F9CDD57
:1033C00043463A46216AA66A2846B047002806DCEA
:1033D000A38943F04003A3814FF0FF308EE70744F9
:1033E000A8EB0008E9E700BF0100402038B50B69F1
:1033F00005460C46DBB118B183690BB9FFF740FAFB
:103400000C4B9C4209D16C68B4F90C307BB121465D
:103410002846BDE83840FFF763BF074B9C4201D107
:10342000AC68F1E7054B9C4208BFEC68ECE7002074
:1034300038BD00BFD0360008F0360008B0360008AE
:1034400038B5074C054608461146002222601A4648
:10345000FDF766F9431C02D1236803B12B6038BD28
:103460009800002070B50E46B1F90E10002996B0F4
:1034700014461D4607DA00232B60B3891A0610D4C0
:103480004FF480630EE06A4600F064F80028F2DB37
:10349000019A02F47042A2F500535A425A412A603E
:1034A000EEE740230020236016B070BD8B8973B512
:1034B0009D0706460C4607D504F1470323602361A8
:1034C0000123636102B070BD01AB6A46FFF7CAFF1A
:1034D000009905463046FFF7ABFA48B9B4F90C300D
:1034E0009A05EFD423F0030343F00203A381E3E73B
:1034F0000D4BB362A389206043F08003A381009B3E
:103500006361019B20615BB1B4F90E10304600F09D
:1035100033F828B1A38923F0030343F00103A38107
:10352000A3891D43A581CDE749280008704770474E
:1035300038B5074C054608461146002222601A4657
:10354000FDF7F6F8431C02D1236803B12B6038BDA8
:103550009800002038B5074C002305460846114660
:103560002360FDF7CDF8431C02D1236803B12B6023
:1035700038BD00BF9800002038B5064C0023054632
:1035800008462360FDF7C4F8431C02D1236803B149
:103590002B6038BD98000020F8B500BFF8BC08BC0F
:1035A0009E467047F8B500BFF8BC08BC9E46704701
:1035B00011000000FFFFFFFFFF0F000400020001E9
:1035C00080004000200010000800040002000100FC
:1035D00000000000000000000102030406070809C3
:1035E0000000000001020304A0860100400D03005A
:1035F000801A060000350C0040420F0080841E0037
:1036000000093D0000127A000024F40000366E012B
:103610000048E801006CDC025372632F5365747537
:10362000705065726970682E6300000057726F6E8B
:103630006720706172616D65746572732076616C6C
:1036400075653A2066696C65202573206F6E206C65
:10365000696E652025640D0A000000005372632F17
:103660006932635F636D2E63000000005372632F45
:10367000756172745F636F6D6D2E63005372632F9B
:10368000636F6D6D616E645F4953412E630000008E
:10369000616E737765725F4953415F4431355F44B2
:1036A000303D256C75200D0A200000000800002028
:1036B000000000000000000000000000000000000A
:1036C00000000000000000000000000000000000FA
:1036D00000000000000000000000000000000000EA
:1036E00000000000000000000000000000000000DA
:1036F00000000000000000000000000000000000CA
:1037000000000000000000000000000000000000B9
:10371000232D302B2000686C4C00656667454647BA
:10372000003031323334353637383941424344453D
:1037300046003031323334353637383961626364AC
:0437400065660000BA
:04374400C5010008B3
:04374800A1010008D3
:10374C0000093D000800002000000000D0360008F1
:10375C00F0360008B0360008000000000000000041
:10376C00000000000000000000000000000000004D
:10377C00000000000000000000000000000000003D
:10378C00000000000000000000000000000000002D
:10379C00000000000000000000000000000000001D
:0837AC00000000000000000015
:0400000508002725A3
:00000001FF
